:100000000C9434000C9451000C9451000C94510049
:100010000C9451000C9451000C9451000C9451001C
:100020000C9451000C9451000C9451000C9451000C
:100030000C9451000C9451000C9453000C945100FA
:100040000C9451000C9451000C9451000C945100EC
:100050000C9451000C9451000C9451000C945100DC
:100060000C9451000C94510011241FBECFEFD8E026
:10007000DEBFCDBF11E0A0E0B1E0ECEDF1E002C0E9
:1000800005900D92A230B107D9F711E0A2E0B1E0DE
:1000900001C01D92A630B107E1F70E94BF000C9489
:1000A000EC000C9400001F920F920FB60F921124D7
:1000B0008F939F93AF93BF93DF93CF93CDB7DEB76B
:1000C0008091020190910301A0910401B09105017A
:1000D0000196A11DB11D8093020190930301A0938D
:1000E0000401B0930501CF91DF91BF91AF919F9132
:1000F0008F910F900FBE0F901F901895DF93CF93A5
:10010000CDB7DEB78091020190910301A091040167
:10011000B091050182309105A105B10558F4809197
:100120000001806280930001E5E2F0E0809100012F
:1001300080830AC0809100018F7D80930001E5E2F9
:10014000F0E0809100018083809102019091030191
:10015000A0910401B0910501813021E0920720E0D7
:10016000A20720E0B20740F01092020110920301B2
:100170001092040110920501CF91DF910895DF9351
:10018000CF93CDB7DEB7A4E2B0E0E4E2F0E0808147
:1001900080628C93E4E4F0E081E08083E5E4F0E0C9
:1001A00082E08083E7E4F0E083E18083A8E4B0E0CC
:1001B000EEE6F0E082E0808380818C9378948091F9
:1001C000020190910301A0910401B0910501BC01CD
:0C01D000CD010E947E00F3CFF894FFCF19
:0201DC00200001
:00000001FF
