:100000000C9434000C9451000C9451000C94510049
:100010000C9451000C9451000C9451000C9451001C
:100020000C9451000C9451000C9451000C9451000C
:100030000C9451000C9451000C9453000C945100FA
:100040000C9451000C9451000C9451000C945100EC
:100050000C9451000C9451000C9451000C945100DC
:100060000C9451000C94510011241FBECFEFD8E026
:10007000DEBFCDBF11E0A0E0B1E0ECE1F2E002C0F4
:1000800005900D92A230B107D9F711E0A2E0B1E0DE
:1000900001C01D92A830B107E1F70E94DF000C9467
:1000A0000C010C9400001F920F920FB60F921124B6
:1000B0008F939F93AF93BF93DF93CF93CDB7DEB76B
:1000C0008091020190910301A0910401B09105017A
:1000D0000196A11DB11D8093020190930301A0938D
:1000E0000401B0930501CF91DF91BF91AF919F9132
:1000F0008F910F900FBE0F901F901895DF93CF93A5
:10010000CDB7DEB780910601282F30E040E050E007
:100110008091020190910301A0910401B091050129
:1001200082179307A407B50758F4809100018062F5
:1001300080930001E5E2F0E08091000180830AC035
:10014000809100018F7D80930001E5E2F0E08091D5
:10015000000180838091020190910301A09104012C
:10016000B09105018F3F9105A105B105C1F0B8F02F
:1001700010920201109203011092040110920501E5
:1001800080910701882331F4809106018F5F80936D
:10019000060105C08091060181508093060180917F
:1001A00006018F3F19F481E08093070180910601D9
:1001B000882311F410920701CF91DF910895DF9306
:1001C000CF93CDB7DEB7A4E2B0E0E4E2F0E0808107
:1001D00080628C93E4E4F0E082E08083E5E4F0E088
:1001E00082E08083E7E4F0E083E18083A8E4B0E08C
:1001F000EEE6F0E082E0808380818C9378948091B9
:10020000020190910301A0910401B0910501BC018C
:0C021000CD010E947E00F3CFF894FFCFD8
:02021C002000C0
:00000001FF
