:100000000C9434000C9451000C9451000C94510049
:100010000C9451000C9451000C9451000C9451001C
:100020000C9451000C9451000C9451000C9451000C
:100030000C9451000C9451000C9453000C945100FA
:100040000C9451000C9451000C9451000C945100EC
:100050000C9451000C9451000C9451000C945100DC
:100060000C9451000C94510011241FBECFEFD8E026
:10007000DEBFCDBF11E0A0E0B1E0E4E3F1E002C0FB
:1000800005900D92A230B107D9F711E0A2E0B1E0DE
:1000900001C01D92A330B107E1F70E946A000C94E1
:1000A00098000C9400001F920F920FB60F9211242B
:1000B0008F93DF93CF93CDB7DEB7809102018F5F2F
:1000C00080930201CF91DF918F910F900FBE0F901F
:1000D0001F901895DF93CF93CDB7DEB7A4E2B0E0C1
:1000E000E4E2F0E0808180628C93E4E4F0E082E07E
:1000F0008083E5E4F0E084E08083E7E4F0E089EFEA
:100100008083EEE6F0E082E08083789480910201C3
:100110008D37E1F79091000180E2892780930001FB
:1001200010920201E5E2F0E0809100018083EECFC1
:04013000F894FFCF71
:020134002000A9
:00000001FF
