:100000000C9434000C9451000C9451000C94510049
:100010000C9451000C9451000C9451000C9451001C
:100020000C9451000C9451000C9451000C9451000C
:100030000C9451000C9451000C9453000C945100FA
:100040000C9451000C9451000C9451000C945100EC
:100050000C9451000C9451000C9451000C945100DC
:100060000C9451000C94510011241FBECFEFD8E026
:10007000DEBFCDBF11E0A0E0B1E0E6EAF1E002C0F2
:1000800005900D92A230B107D9F711E0A2E0B1E0DE
:1000900001C01D92A630B107E1F70E94A8000C94A0
:1000A000D1000C9400001F920F920FB60F921124F2
:1000B0008F939F93AF93BF93DF93CF93CDB7DEB76B
:1000C0008091020190910301A0910401B09105017A
:1000D0000196A11DB11D8093020190930301A0938D
:1000E0000401B0930501CF91DF91BF91AF919F9132
:1000F0008F910F900FBE0F901F901895DF93CF93A5
:10010000CDB7DEB78091020190910301A091040167
:10011000B0910501883E23E0920720E0A20720E08D
:10012000B20799F49091000180E289278093000141
:100130001092020110920301109204011092050125
:10014000E5E2F0E0809100018083CF91DF91089596
:10015000DF93CF93CDB7DEB7A4E2B0E0E4E2F0E006
:10016000808180628C93E4E4F0E082E08083E5E4C7
:10017000F0E083E08083E7E4F0E089EF8083EEE65F
:10018000F0E082E0808378948091020190910301F5
:10019000A0910401B0910501BC01CD010E947E0037
:0601A000F3CFF894FFCF3D
:0201A600200037
:00000001FF
