:100000000C9434000C9451000C9451000C94510049
:100010000C9451000C9451000C9451000C9451001C
:100020000C9451000C9451000C9451000C9451000C
:100030000C9451000C9451000C9453000C945100FA
:100040000C9451000C9451000C9451000C945100EC
:100050000C9451000C9451000C9451000C945100DC
:100060000C9451000C94510011241FBECFEFD8E026
:10007000DEBFCDBF11E0A0E0B1E0ECE4F1E002C0F2
:1000800005900D92A230B107D9F711E0A2E0B1E0DE
:1000900001C01D92A430B107E1F70E9470000C94DA
:1000A000A4000C9400001F920F920FB60F9211241F
:1000B0008F939F93DF93CF93CDB7DEB780910201EB
:1000C0009091030101969093030180930201CF91D7
:1000D000DF919F918F910F900FBE0F901F901895F9
:1000E000DF93CF93CDB7DEB7A4E2B0E0E4E2F0E077
:1000F000808180628C93E4E4F0E082E08083E5E438
:10010000F0E083E08083E7E4F0E089EF8083EEE6CF
:10011000F0E082E080837894809102019091030165
:1001200023E0883E9207C1F79091000180E2892781
:10013000809300011092030110920201E5E2F0E0C9
:0C014000809100018083E8CFF894FFCF8D
:02014C00200091
:00000001FF
